{"abi":[{"type":"constructor","inputs":[],"stateMutability":"nonpayable"},{"type":"function","name":"getClientStats","inputs":[{"name":"client","type":"address","internalType":"address"}],"outputs":[{"name":"totalTokens","type":"uint256","internalType":"uint256"}],"stateMutability":"view"},{"type":"function","name":"getExecutorStats","inputs":[{"name":"executor","type":"address","internalType":"address"}],"outputs":[{"name":"totalTokens","type":"uint256","internalType":"uint256"}],"stateMutability":"view"},{"type":"function","name":"getNetworkStats","inputs":[],"outputs":[{"name":"totalTokens","type":"uint256","internalType":"uint256"}],"stateMutability":"view"},{"type":"function","name":"hasRecordedUsage","inputs":[{"name":"executor","type":"address","internalType":"address"}],"outputs":[{"name":"hasUsage","type":"bool","internalType":"bool"}],"stateMutability":"view"},{"type":"function","name":"owner","inputs":[],"outputs":[{"name":"","type":"address","internalType":"address"}],"stateMutability":"view"},{"type":"function","name":"recordUsage","inputs":[{"name":"client","type":"address","internalType":"address"},{"name":"model","type":"string","internalType":"string"},{"name":"tokenCount","type":"uint256","internalType":"uint256"}],"outputs":[],"stateMutability":"nonpayable"},{"type":"function","name":"totalTokensByClient","inputs":[{"name":"","type":"address","internalType":"address"}],"outputs":[{"name":"","type":"uint256","internalType":"uint256"}],"stateMutability":"view"},{"type":"function","name":"totalTokensByExecutor","inputs":[{"name":"","type":"address","internalType":"address"}],"outputs":[{"name":"","type":"uint256","internalType":"uint256"}],"stateMutability":"view"},{"type":"function","name":"totalTokensProcessed","inputs":[],"outputs":[{"name":"","type":"uint256","internalType":"uint256"}],"stateMutability":"view"},{"type":"function","name":"transferOwnership","inputs":[{"name":"newOwner","type":"address","internalType":"address"}],"outputs":[],"stateMutability":"nonpayable"},{"type":"event","name":"UsageRecorded","inputs":[{"name":"executor","type":"address","indexed":true,"internalType":"address"},{"name":"client","type":"address","indexed":true,"internalType":"address"},{"name":"model","type":"string","indexed":false,"internalType":"string"},{"name":"tokenCount","type":"uint256","indexed":false,"internalType":"uint256"},{"name":"timestamp","type":"uint256","indexed":false,"internalType":"uint256"}],"anonymous":false}],"bytecode":{"object":"0x608060405234801561000f575f80fd5b50335f806101000a81548173ffffffffffffffffffffffffffffffffffffffff021916908373ffffffffffffffffffffffffffffffffffffffff160217905550610bfe8061005c5f395ff3fe608060405234801561000f575f80fd5b506004361061009c575f3560e01c806388b5c3791161006457806388b5c3791461017e5780638da5cb5b1461019a578063d8da0cae146101b8578063e9baaec9146101e8578063f2fde38b146102065761009c565b8063110a9648146100a05780631207c03b146100d05780634a662f48146101005780634eabb11f1461011e57806383391fa91461014e575b5f80fd5b6100ba60048036038101906100b59190610715565b610222565b6040516100c79190610758565b60405180910390f35b6100ea60048036038101906100e59190610715565b610268565b6040516100f79190610758565b60405180910390f35b6101086102ae565b6040516101159190610758565b60405180910390f35b61013860048036038101906101339190610715565b6102b7565b604051610145919061078b565b60405180910390f35b61016860048036038101906101639190610715565b6102ff565b6040516101759190610758565b60405180910390f35b6101986004803603810190610193919061082f565b610314565b005b6101a2610538565b6040516101af91906108af565b60405180910390f35b6101d260048036038101906101cd9190610715565b61055b565b6040516101df9190610758565b60405180910390f35b6101f0610570565b6040516101fd9190610758565b60405180910390f35b610220600480360381019061021b9190610715565b610576565b005b5f60015f8373ffffffffffffffffffffffffffffffffffffffff1673ffffffffffffffffffffffffffffffffffffffff1681526020019081526020015f20549050919050565b5f60025f8373ffffffffffffffffffffffffffffffffffffffff1673ffffffffffffffffffffffffffffffffffffffff1681526020019081526020015f20549050919050565b5f600354905090565b5f8060015f8473ffffffffffffffffffffffffffffffffffffffff1673ffffffffffffffffffffffffffffffffffffffff1681526020019081526020015f2054119050919050565b6001602052805f5260405f205f915090505481565b5f73ffffffffffffffffffffffffffffffffffffffff168473ffffffffffffffffffffffffffffffffffffffff1603610382576040517f08c379a000000000000000000000000000000000000000000000000000000000815260040161037990610922565b60405180910390fd5b5f81116103c4576040517f08c379a00000000000000000000000000000000000000000000000000000000081526004016103bb9061098a565b60405180910390fd5b5f8383905011610409576040517f08c379a0000000000000000000000000000000000000000000000000000000008152600401610400906109f2565b60405180910390fd5b8060015f3373ffffffffffffffffffffffffffffffffffffffff1673ffffffffffffffffffffffffffffffffffffffff1681526020019081526020015f205f8282546104559190610a3d565b925050819055508060025f8673ffffffffffffffffffffffffffffffffffffffff1673ffffffffffffffffffffffffffffffffffffffff1681526020019081526020015f205f8282546104a89190610a3d565b925050819055508060035f8282546104c09190610a3d565b925050819055508373ffffffffffffffffffffffffffffffffffffffff163373ffffffffffffffffffffffffffffffffffffffff167f17f4357f37c774900d80b37ff399cb3a9c8441e59e90d5ab9de4fe8a0079441d8585854260405161052a9493929190610aba565b60405180910390a350505050565b5f8054906101000a900473ffffffffffffffffffffffffffffffffffffffff1681565b6002602052805f5260405f205f915090505481565b60035481565b5f8054906101000a900473ffffffffffffffffffffffffffffffffffffffff1673ffffffffffffffffffffffffffffffffffffffff163373ffffffffffffffffffffffffffffffffffffffff1614610603576040517f08c379a00000000000000000000000000000000000000000000000000000000081526004016105fa90610b42565b60405180910390fd5b5f73ffffffffffffffffffffffffffffffffffffffff168173ffffffffffffffffffffffffffffffffffffffff1603610671576040517f08c379a000000000000000000000000000000000000000000000000000000000815260040161066890610baa565b60405180910390fd5b805f806101000a81548173ffffffffffffffffffffffffffffffffffffffff021916908373ffffffffffffffffffffffffffffffffffffffff16021790555050565b5f80fd5b5f80fd5b5f73ffffffffffffffffffffffffffffffffffffffff82169050919050565b5f6106e4826106bb565b9050919050565b6106f4816106da565b81146106fe575f80fd5b50565b5f8135905061070f816106eb565b92915050565b5f6020828403121561072a576107296106b3565b5b5f61073784828501610701565b91505092915050565b5f819050919050565b61075281610740565b82525050565b5f60208201905061076b5f830184610749565b92915050565b5f8115159050919050565b61078581610771565b82525050565b5f60208201905061079e5f83018461077c565b92915050565b5f80fd5b5f80fd5b5f80fd5b5f8083601f8401126107c5576107c46107a4565b5b8235905067ffffffffffffffff8111156107e2576107e16107a8565b5b6020830191508360018202830111156107fe576107fd6107ac565b5b9250929050565b61080e81610740565b8114610818575f80fd5b50565b5f8135905061082981610805565b92915050565b5f805f8060608587031215610847576108466106b3565b5b5f61085487828801610701565b945050602085013567ffffffffffffffff811115610875576108746106b7565b5b610881878288016107b0565b935093505060406108948782880161081b565b91505092959194509250565b6108a9816106da565b82525050565b5f6020820190506108c25f8301846108a0565b92915050565b5f82825260208201905092915050565b7f496e76616c696420636c69656e742061646472657373000000000000000000005f82015250565b5f61090c6016836108c8565b9150610917826108d8565b602082019050919050565b5f6020820190508181035f83015261093981610900565b9050919050565b7f546f6b656e20636f756e74206d75737420626520706f736974697665000000005f82015250565b5f610974601c836108c8565b915061097f82610940565b602082019050919050565b5f6020820190508181035f8301526109a181610968565b9050919050565b7f4d6f64656c206e616d652063616e6e6f7420626520656d7074790000000000005f82015250565b5f6109dc601a836108c8565b91506109e7826109a8565b602082019050919050565b5f6020820190508181035f830152610a09816109d0565b9050919050565b7f4e487b71000000000000000000000000000000000000000000000000000000005f52601160045260245ffd5b5f610a4782610740565b9150610a5283610740565b9250828201905080821115610a6a57610a69610a10565b5b92915050565b828183375f83830152505050565b5f601f19601f8301169050919050565b5f610a9983856108c8565b9350610aa6838584610a70565b610aaf83610a7e565b840190509392505050565b5f6060820190508181035f830152610ad3818688610a8e565b9050610ae26020830185610749565b610aef6040830184610749565b95945050505050565b7f4e6f742074686520636f6e7472616374206f776e6572000000000000000000005f82015250565b5f610b2c6016836108c8565b9150610b3782610af8565b602082019050919050565b5f6020820190508181035f830152610b5981610b20565b9050919050565b7f496e76616c6964206e6577206f776e65722061646472657373000000000000005f82015250565b5f610b946019836108c8565b9150610b9f82610b60565b602082019050919050565b5f6020820190508181035f830152610bc181610b88565b905091905056fea26469706673582212209145ac5b210882428dd6631ff1c326f261fa606160c6c0dcb6a4b530c06e7ffe64736f6c63430008140033","linkReferences":{}},"methodIdentifiers":{"getClientStats(address)":"1207c03b","getExecutorStats(address)":"110a9648","getNetworkStats()":"4a662f48","hasRecordedUsage(address)":"4eabb11f","owner()":"8da5cb5b","recordUsage(address,string,uint256)":"88b5c379","totalTokensByClient(address)":"d8da0cae","totalTokensByExecutor(address)":"83391fa9","totalTokensProcessed()":"e9baaec9","transferOwnership(address)":"f2fde38b"},"id":0}